:020000040000FA
:10000000000000EB250000EB2C008FE2000C90E8D4
:1000100000A08AE000B08BE001704AE20B005AE1D8
:100020000000001A1D0000EB0F00BAE818E04FE2D4
:10003000010013E303F0471013FF2FE1FC01000060
:100040000C0200000030B0E30040B0E30050B0E329
:100050000060B0E3102052E27800A128FCFFFF8A84
:10006000822EB0E13000A128003081451EFF2FE133
:1000700001C08FE21CFF2FE11FB500F0D9F80598F1
:1000800086460FBC009C02B07047000001C08FE2A2
:100090001CFF2FE130B47546AE4630BC70470000FF
:1000A0003D0000EB0210A0E1F0FFFFEB1CC09FE55C
:1000B0000FC08CE001001CE30DE08F120FE0A001E7
:1000C0001CFF2FE101C08FE21CFF2FE100F096F82A
:1000D000640000007847C046EBFFFFEB4C0000EBEC
:1000E0000C009FE50C109FE504209FE508309FE57C
:1000F0001EFF2FE1600000406004004060000040EF
:100100000000A0E3000000EA010080E278109FE513
:10011000010050E1FBFFFF3A1EFF2FE104E02DE557
:1001200068009FE5080090E5010880E35C109FE50A
:10013000080081E50100A0E1180090E50108C0E396
:10014000180081E50F0000EA40009FE5100090E5EF
:10015000010810E30500001A30009FE5040090E557
:10016000010880E324109FE5040081E5040000EA13
:1001700018009FE50C0090E5010880E30C109FE556
:100180000C0081E5DDFFFFEBEEFFFFEA400D030011
:10019000008002E070477047704700000E50A0E1F9
:1001A000180000EB05E0A0E10050B0E10D10A0E167
:1001B0000A30A0E10700C0E300D0A0E160D08DE2EA
:1001C00020402DE9C5FFFFEB2040BDE80060A0E323
:1001D0000070A0E30080A0E300B0A0E30710C1E33B
:1001E00005C0A0E1C009ACE8C009ACE8C009ACE8B2
:1001F000C009ACE801D0A0E11EFF2FE10400C04619
:10020000C0462000FFF766FF00009FE51EFF2FE1BC
:10021000000000400C109FE51800A0E3563412EFD8
:100220001EFF2FE108000000260002001EFF2FE144
:100230007847C0461EFF2FE1480200000000004042
:08024000E80400004400000086
:0400000500000000F7
:00000001FF
